:020000040800F2
:10000000380E0020BD2B0008BD050008BF05000804
:10001000C1050008C3050008C50500080000000070
:10002000000000000000000000000000C7050008FC
:10003000C905000800000000CB050008CD05000838
:10004000D72B0008D72B0008D72B0008D72B000888
:10005000D72B0008D72B0008D72B0008D72B000878
:10006000D72B0008D72B0008D72B0008D72B000868
:10007000D72B0008D72B0008D72B0008D72B000858
:10008000D72B0008D72B0008D72B0008D72B000848
:10009000D72B0008D72B0008D72B0008D72B000838
:1000A000D72B0008D72B0008D72B0008D72B000828
:1000B000D72B000871190008FD190008D72B00087C
:1000C000D72B0008D72B0008D72B0008D72B000808
:1000D000D72B0008D72B0008A5190008D72B00083C
:1000E000D72B0008D72B0008D72B0008D72B0008E8
:1000F000D72B0008D72B0008D72B0008D72B0008D8
:10010000D72B0008D72B0008D72B0008D72B0008C7
:10011000D72B0008D72B0008D72B0008D72B0008B7
:10012000D72B0008D72B0008D72B0008D72B0008A7
:10013000DFF80CD004F0F2FB00480047A3040008ED
:10014000380E002010B5044603F0D1F88021204677
:1001500003F02EF90028F9D010BD2DE9F041164624
:100160000D460746002405E029783846FFF7EAFFE8
:10017000641C6D1CB442F7DBBDE8F08110B5F04C97
:10018000012300212278042000F001FE627801237F
:100190000221042000F0FBFD0421A278012308467F
:1001A00000F0F5FDE27801230621BDE810400420AF
:1001B00000F0EDBD10B5E24AE2490020135C0C5C92
:1001C000A34202D1401C0428F8DB042801D00020FF
:1001D00010BDDB4800210B38C0F80B10012010BD0A
:1001E0002DE9F05FD64D00240B3DD74FA8780128AC
:1001F00018D12021384602F0A0FD012812D120217B
:10020000384602F09AFD0128F9D06879401CC0B246
:100210006871052800D16C71002000F017FBAC71EB
:10022000C5F80B406879C64E4FF4807A4FF47A7B5C
:1002300000287DD100F00AFB0021C4A2084600F08E
:1002400090FCFFF79BFFC82002F09AFC01F042FDF2
:100250006878DFF808834FF0010901280FD16C702E
:10026000C8F894412879401C2871584602F088FC4F
:10027000584602F085FCC8F8949185F802905146E2
:10028000384602F05AFD012837D1002000F0DEFA8E
:100290005146384602F051FD0128F9D0A879401C9A
:1002A000C0B2A871052802D0042802D025E0AC71A4
:1002B00023E0FFF77FFF012812D1C8F8A041EC70BE
:1002C0006C70C8F894412879401C2871584602F097
:1002D00057FC584602F054FCC8F8949185F80290F7
:1002E000FFF768FF48B9E878401CC0B2E8700328FF
:1002F00003D9C8F8A0910620687199A2042138207A
:1003000000F02FFC4021384602F017FD01280DD1E6
:100310004021384602F011FD0028F9D1A979705C1E
:10032000401CC0B270540A2800D17454802100E0EF
:1003300011E0384602F001FD01280CD18021384639
:1003400002F0FBFC0028F9D1A9792A78705C904270
:1003500001D9401E70546879012876D1002181A20C
:10036000084600F0FEFBFFF709FF5146384602F051
:10037000E4FC01280FD1002000F068FA514638460D
:1003800002F0DBFC0128F9D0A879401CC0B2A871AA
:10039000052800D1AC7172A20421382000F0E1FBE5
:1003A0004021384602F0C9FC01280DD140213846D1
:1003B00002F0C3FC0028F9D1A879315C491CC9B20C
:1003C00031540A2900D134548021384602F0B5FC5A
:1003D00001280CD18021384602F0AFFC0028F9D169
:1003E000A9792A78705C904201D9401E7054A8798E
:1003F00004282AD13078C0B15C4B187071785970DC
:10040000B2789A70F678DE704E4B187059709A7008
:10041000DE7002F05DFB56A20621382000F0A1FB41
:10042000584602F0ADFB4EA208E052A20621382049
:1004300000F097FB584602F0A3FB50A2062138209B
:1004400000F08FFBC5F80B40AC7168794FF4FA747B
:1004500002280FD1002000F0F9F9002149A2084636
:1004600000F07FFB584602F08BFB204602F088FB31
:1004700001F038FF6879032811D1002000F0E6F977
:10048000002142A2084600F06CFB584602F078FBBF
:10049000204602F075FBBDE8F05F01F07ABDBDE8D3
:1004A000F09F08B502F032FB02F03CFB01F04DFB7F
:1004B00001F066F900F0E5F901F0F5F901F035FA1F
:1004C00001F074F901F0A3F941F61F4143F69720BA
:1004D00001F0BCF9214C0120C4F8A0014FF47A705E
:1004E00004F5D07402F04CFB00202060C82002F01C
:1004F00047FB002000F0AAF9114C264D0B3CFFF7FA
:100500006FFE28880090E378227923A12A4804F01E
:1005100027FAF4E70A4A10B50020111F135C0C5C9F
:10052000A34202D1401C0428F8DB042801D000209B
:1005300010BD034800210B38C0F80B10012010BD7E
:100540000B00002045000020000C0140494E204BCC
:100550004559204F5220505245535300000021422C
:1005600020202000534554204B45590040000020D6
:100570004F4B00004572726F720000002020202057
:1005800020000000414444204652210044454C20B4
:10059000465221003C0000203132333435363738A2
:1005A000266D73673D6F6E253033642530336425C7
:1005B0003033640D0A000000680000207047FEE739
:1005C000FEE7FEE7FEE770477047704770470000A0
:1005D0000CB500224C4800920192016841F4803130
:1005E00001604FF4A063016801F4003101910099AA
:1005F000491C0091019911B900999942F3D1016800
:10060000890333D50121019140490A6842F0100263
:100610000A600A6822F003020A600A6842F00202D5
:100620000A604168416041684160416841F480610D
:100630004160416821F47C114160416841F4E81156
:100640004160016841F08071016001688901FCD559
:10065000416821F003014160416841F002014160BD
:100660004168C1F381010229FAD10CBD01920CBD90
:10067000254810B5016841F0010101604168244A34
:10068000114041600168234A11400160016821F472
:1006900080210160416821F4FE0141604FF41F0197
:1006A0008160FFF795FF1C494FF00060086010BDA6
:1006B000154A10B55068194B10F00C01184803D0BA
:1006C000042901D0082901D0036012E05168536861
:1006D00001F470114FF0020413F4803F04EB9141D8
:1006E00002D053689B0301D50E4B00E00B4B5943DE
:1006F000016051680A4AC1F30311121D515C02687E
:10070000CA40026010BD00000010024000200240FC
:100710000000FFF8FFFFF6FE08ED00E000127A008F
:100720001000002000093D002DE9F047F84E054675
:100730004FF4004900294946304602D002F011FB2F
:1007400001E002F010FB00244FF400584FF48057F2
:100750003946304602F007FB28064146304602D5AE
:1007600002F0FFFA01E002F0FEFA3946304602F0EC
:10077000F8FA6806641C050EE4B2082CE8D3494672
:100780003046BDE8F04702F0ECBA40F2375303E0E0
:100790001946491EFDD2401E0028F9D170472DE9A7
:1007A000F041DB4E054608242103304602F0D9FA19
:1007B00000BF4FF480573946304602F0D4FA00BFEC
:1007C0004FF4005813E028064146304602D502F0A7
:1007D000C8FA01E002F0C7FA3946304602F0C1FA21
:1007E00000BF3946304602F0BEFA6806050E641EA8
:1007F000E4B2E8D2BDE8F0812DE9F041C44E0546EF
:1008000008242103304602F0AEFA6702394630462A
:1008100002F0A9FA00BF4FF4005813E02806414641
:10082000304602D502F09DFA01E002F09CFA39460A
:10083000304602F096FA00BF3946304602F093FA8D
:100840006806050E641EE4B2E8D2D3E770B506462A
:10085000002505F1B000C0B2FFF7CEFF0120FFF781
:10086000CBFF1020FFF7C8FF00243046FFF797FFAB
:10087000641CE4B2802CF8D36D1CEDB2082DE8D3D3
:1008800070BD38B50121082002F0E9FB4FF470403B
:10089000ADF8000003208DF8020010209C4C8DF86C
:1008A00003006946204602F0F2F9A114204602F046
:1008B00058FA4FF480452946204602F054FA322077
:1008C000FFF763FF2946204602F04BFA0021AE20D5
:1008D000FFF72AFF0021D520FFF726FF0021802007
:1008E000FFF722FF0021A820FFF71EFF00213F2075
:1008F000FFF71AFF0021D320FFF716FF002108465B
:10090000FFF712FF00214020FFF70EFF00218D208E
:10091000FFF70AFF00211420FFF706FF0021202027
:10092000FFF702FF00210220FFF7FEFE0021A120B9
:10093000FFF7FAFE0021C820FFF7F6FE0021DA20BB
:10094000FFF7F2FE00211220FFF7EEFE00218120CA
:10095000FFF7EAFE0021EF20FFF7E6FE0021D92095
:10096000FFF7E2FE0021F120FFF7DEFE0021DB2091
:10097000FFF7DAFE00214020FFF7D6FE0021A42079
:10098000FFF7D2FE0021A620FFF7CEFE0021AF2008
:10099000FFF7CAFE0020FFF759FF38BD10B5044627
:1009A000B031C8B2FFF728FF102040EA1410FFF75B
:1009B00023FF04F00F00BDE810401DE770B50025CF
:1009C00005F1B000C0B2FFF717FF0120FFF714FFD9
:1009D0001020FFF711FF00240020FFF7E0FE641C49
:1009E000E4B2802CF8D36D1CEDB2082DE8D370BDB5
:1009F00002E710B5044600F00F00FFF7FDFE1020DF
:100A000000EB1410BDE81040F6E610B504462020B7
:100A1000FFF7F2FE2046BDE81040EDE670B5044653
:100A20000D462120FFF7E8FE2046FFF7E5FE2846A9
:100A3000BDE87040E0E670B504460D462220FFF7A1
:100A4000DBFE2046FFF7D8FE2846BDE87040D3E61F
:100A500040F04000D0E610B504468120FFF7CCFE00
:100A60002046BDE81040C7E610B504468D20FFF7CC
:100A7000C3FE44F01000BDE81040BDE640F0A00009
:100A8000BAE640F0A400B7E640F0A600B4E610B520
:100A90000446A820FFF7B0FE2046BDE81040ABE6B4
:100AA00040F0AE00A8E640F0B000A5E640F0C0007F
:100AB000A2E610B50446D320FFF79EFE2046BDE80F
:100AC000104099E610B50446D520FFF795FE204664
:100AD000BDE8104090E610B50446D920FFF78CFE23
:100AE0002046BDE8104087E610B50446DA20FFF73F
:100AF00083FE44F00200BDE810407DE610B50446D8
:100B0000DB20FFF779FE2046BDE8104074E60000C8
:100B1000000C0140E3206FE62DE9F04790460546C2
:100B20000026FFF73BFFDFF81C9714E02038C0B227
:100B30007E2D00D9002500EB4000002409EB400782
:100B4000385DFFF72CFE641CE4B2062CF8D3AD1D13
:100B5000761CEDB2F6B218F806000028E6D1BDE822
:100B6000F0872DE9F0479246884605460027DFF8D2
:100B7000D8962DE02038C6B2782D04D908F10100AE
:100B8000002500F0FF0841462846FFF707FF002434
:100B900004EB061119F80100FFF701FE641CE4B232
:100BA000082CF5D308F10100C1B22846FFF7F6FE84
:100BB000002404EB061101EB0900007AFFF7EFFDBA
:100BC000641CE4B2082CF4D308357F1CEDB2FFB2EC
:100BD0001AF807000028CDD1C1E72DE9F05FDFF852
:100BE00068B69246ABF1F10B0E46804600250BF13C
:100BF000110962E0002001240AEB05075A460DE0C6
:100C0000994209D1111897F801C04978614503D17B
:100C1000C0EBC000440004E0801CC0B2115C7F291E
:100C2000EED84046B8F1760F03D90020761C8046F6
:100C3000F6B23146FFF7B2FE012C1DD031464046D8
:100C4000FFF7ACFE002719F80400FFF7A8FD7F1C92
:100C5000FFB2641C0E2FF6D3701CC1B24046FFF7E2
:100C60009DFE002719F80400FFF799FD7F1CFFB2D5
:100C7000641C0E2FF6D31AE06D1CEDB231464046CF
:100C8000FFF78CFE00240020FFF789FD641CE4B20E
:100C9000102CF8D3701CC1B24046FFF77FFE002431
:100CA0000020FFF77CFD641CE4B2102CF8D308F19F
:100CB0000E00AD1C00F0FF08EDB21AF80530002B55
:100CC00098D1BDE8F09F2DE9F843002416468846E8
:100CD000054627461DE07F288DF800000ED9301903
:100CE0006A4640788DF801008DF80270414628462A
:100CF000FFF737FF0E35EDB2A41C09E08DF8017047
:100D00006A4641462846FFF72CFF0835EDB2641CC1
:100D1000E4B2305D0028DED1BDE8F88308B50346B3
:100D2000C8068DF8002000218DF80110000E6A46DB
:100D30001946FFF7F1FE08BD2DE9F843804600246F
:100D4000C8061646050E27461DE07F288DF80000D0
:100D50000ED930196A4640788DF801008DF802707E
:100D600041462846FFF739FF0E35EDB2A41C09E0D5
:100D70008DF801706A4641462846FFF7CDFE0835DA
:100D8000EDB2641CE4B2305D0028DED1C4E72DE989
:100D9000FC410D46EC06250E42F21074B2FBF4F64F
:100DA0000A24B6FBF4F70146002004FB1766009006
:100DB0008DF800604FF47A76B2FBF6F6B6FBF4F7E6
:100DC00004FB17668DF801606426B2FBF6F6B6FBED
:100DD000F4F704FB17668DF80260B2FBF4F6B6FB7D
:100DE000F4F704FB17668DF80360B2FBF4F604FB1E
:100DF000162201908DF804206A46145C3034145495
:100E0000401CC0B20528F8D3C3F1050002442846AF
:100E1000FFF7A7FEBDE8FC812DE9FF5F002084B04D
:100E200098461546012481460090019002460346EB
:100E30000290DDF848B027462846414603F096FC6C
:100E4000284602D288F0004100E0414603F043FC0E
:100E5000064603F022FC2A46434603F0A9FB002283
:100E6000FA4B03F0A8FB03F055FC01460A2004E00E
:100E700007EB87025700641CE4B296FBF0F292FB8A
:100E8000F7F2002AF4D142F2107296FBF2F292FBD2
:100E9000F0F300FB13228DF800204FF47A7296FBDA
:100EA000F2F393FBF0F700FB17338DF80130642366
:100EB00096FBF3F797FBF0FC00FB1C778DF80270B4
:100EC00096FBF0F797FBF0FC00FB1C778DF80370A6
:100ED00096FBF0F7B1FBF2F200FB17668DF80460A9
:100EE000B2FBF0F600FB16224FF02E0A8DF805A09B
:100EF0008DF80620B1FBF3F2B2FBF0F300FB1322F6
:100F00008DF80720B1FBF0F2B2FBF0F300FB1322E7
:100F10008DF80820B1FBF0F200FB12108DF80900EB
:100F20000DEB0B076E4687F806900020315C3031E0
:100F30003154401C0A28F9DB00221346284641465A
:100F400003F014FC05D2641CE4B2C4F105012D20A9
:100F500070548DF805A0C4F1050087F80690821939
:100F6000DDE90410FFF7FDFD08B0AAE62DE9FF5FFB
:100F700084B04FF00008C806DDE912BA4FEA1069E4
:100F800016461F46CDF80080CDF804800124104697
:100F90001946CDF8088003F09EFB054603F08EFB52
:100FA00032463B4603F004FB0022A84B03F003FB50
:100FB00003F0B0FB01460A2002E004EB8402540077
:100FC000B5FBF0F2A242F8D242F21072B5FBF2F297
:100FD000B2FBF0F300FB13228DF800204FF47A747B
:100FE000B5FBF4F2B2FBF0F300FB13228DF8012005
:100FF0006426B5FBF6F2B2FBF0F300FB13228DF88A
:101000000220B5FBF0F2B2FBF0F300FB13228DF8E7
:101010000320B1FBF4F2B2FBF0F42E2300FB142208
:101020008DF805308DF80620B1FBF6F2B2FBF0F436
:1010300000FB14228DF80720B1FBF0F2B2FBF0F4B4
:1010400000FB14228DF80820B1FBF0F200FB121017
:101050008DF809000DEB0A044546694684F80680C0
:1010600000200A5C30320A54401C0A28F9DBCBF11C
:1010700005008DF805304218A57148460499FFF720
:1010800070FD71E72DE9F0410025714F2E46314684
:101090000020FFF783FC0024785D6D1CFFF77FFBC9
:1010A000641CE4B2802CF7D3761CF6B2082EEED383
:1010B000BDE8F081F8B50023009302236E460A24B0
:1010C000B2FBF4F504FB1525B2FBF4F23035F55410
:1010D0005B1EF5D53246FFF744FDF8BDF8B5002399
:1010E000009303236E460A24B2FBF4F504FB152596
:1010F000B2FBF4F23035F5545B1EF5D53246FFF7FE
:1011000030FDF8BDF8B50023009302236E460A2493
:10111000B2FBF4F504FB1525B2FBF4F23035F554BF
:101120005B1EF5D53246FFF7F7FCF8BD70B500EB56
:101130004000400615460024000EFFF72FFC4149F1
:1011400005EB450001EB4005281990F86000FFF71A
:1011500026FB641C062CF7DB70BD70B50A23044621
:10116000B2FBF3F0B2FBF3F603FB10200D46611C5B
:10117000CBB2024629461846FFF7D8FF3246294629
:101180002046BDE87040D1E72DE9F04104466420D7
:101190000E46B2FBF0F3B2FBF0F100FB13230A2082
:1011A000B3FBF0F5B2FBF0F300FB1327C9B20A461C
:1011B00031462046FFF7BAFF601CC0B22A463146CE
:1011C000FFF7B4FFA41CE0B23A463146BDE8F04157
:1011D000ACE72DE9F04188460446002A00DA524285
:1011E0004FF47A7092FBF0F392FBF0F100FB1323C3
:1011F000642093FBF0F3DEB292FBF0F300FB1323C9
:101200000A2093FBF0F3DDB292FBF0F300FB132016
:10121000C9B2C7B20A4641462046FFF787FF601CA5
:10122000C0B232464146FFF781FFA01CC0B22A4639
:101230004146FFF77BFFE41CE0B23A464146BDE879
:10124000F04173E7264E00083F5100080088C34074
:101250002F5700082DE9F047044642F210708946E6
:10126000B2FBF0F3B2FBF0F100FB13234FF47A7002
:10127000B3FBF0F303F0FF08B2FBF0F300FB132322
:101280006420B3FBF0F3DEB2B2FBF0F300FB1323F8
:101290000A20B3FBF0F5B2FBF0F300FB1327C9B251
:1012A0000A4649462046FFF741FF601CC0B242464D
:1012B0004946FFF73BFFA01CC0B232464946FFF744
:1012C00035FFE01CC0B22A464946FFF72FFF241D18
:1012D000E0B23A464946BDE8F04727E72DE9F0413C
:1012E00005464FF40040FE4E00290146304602D02C
:1012F00001F037FD01E001F036FD00244FF4005805
:101300004FF480573946304601F02DFD28064146FE
:10131000304602D501F025FD01E001F024FD3946FB
:10132000304601F01EFD6806641C050EE4B2082C70
:10133000E8D3BDE670B5002505F1B000C0B20021CC
:10134000FFF7CCFF00210846FFF7C8FF002110205F
:10135000FFF7C4FF002401210020FFF7BFFF641C3A
:10136000E4B2802CF7D36D1CEDB2082DE4D370BD30
:1013700010B50446B031C8B20021FFF7AFFF10200E
:1013800040EA14100021FFF7A9FF04F00F00BDE8A8
:10139000104040F001000021A0E72DE9F041203A83
:1013A0000F468046D5B27F2803D900208F1C804687
:1013B000FFB23946FFF7DCFFCA4E002404EB0510EC
:1013C0000121305CFFF78AFF641CE4B2082CF5D3DE
:1013D0007F1CF9B24046FFF7CBFF002404EB051059
:1013E00030440121007AFFF779FF641CE4B2082C35
:1013F000F4D35DE62DE9F04117460E46044600257C
:101400000CE031462046FFF7C8FF0834E4B2782CE0
:1014100002D90024B61CF6B26D1CEDB27A5D002A2A
:10142000EFD145E62DE9F04115460E460746FFF798
:101430009FFFAD48002400EB85150121285DFFF7D3
:101440004DFF641CE4B2102CF7D3761CF1B2384681
:10145000FFF78EFF00242819012190F82000FFF7E4
:101460003DFF641CE4B2102CF5D321E638B5FFF73C
:1014700061FF002211461B20FFF7D4FF9BA204212D
:101480000020FFF7B7FF9AA206210020FFF7B2FF66
:1014900098A204216C20FFF7ADFF97A206216C20D3
:1014A000FFF7A8FF93A204213620FFF7A3FF92A223
:1014B00006213620FFF79EFF914D904802242860B8
:1014C0004207904B472104200094FFF7A5FC8EA211
:1014D00020210220FFF730FC686803F034F902464F
:1014E0000B46472106200094FFF796FC38BD38B51F
:1014F000FFF720FF002211461B20FFF793FF012278
:1015000000212D20FFF78EFF022200213F20FFF750
:1015100089FF032200215120FFF784FF04220221CA
:101520001220FFF77FFF052202212420FFF77AFF18
:10153000062202214820FFF775FF072202215A20C8
:10154000FFF770FF71A204210020FFF753FF70A284
:1015500006210020FFF74EFF66A204216C20FFF752
:1015600049FF65A206216C20FFF744FF61A2042118
:101570003620FFF73FFF60A206213620FFF73AFF33
:101580005F4D286803F0DFF8022402460B4647212E
:1015900004200094FFF740FC686803F0D4F802468A
:1015A0000B46472106200094FFF736FC38BD38B5BE
:1015B000FFF7C0FE002211461B20FFF733FF012278
:1015C00000212D20FFF72EFF022200213F20FFF7F0
:1015D00029FF032200215120FFF724FF04220221CA
:1015E0001220FFF71FFF052202212420FFF71AFF18
:1015F000062202214820FFF715FF072202215A2068
:10160000FFF710FF43A204210020FFF7F3FE42A2E0
:1016100006210020FFF7EEFE36A204216C20FFF722
:10162000E9FE35A206216C20FFF7E4FE31A2042179
:101630003620FFF7DFFE30A206213620FFF7DAFE64
:101640002F4D286803F07FF8022402460B464721FD
:1016500004200094FFF7E0FB686803F074F802468A
:101660000B46472106200094FFF7D6FB38BD38B55E
:10167000FFF760FE002211461B20FFF7D3FE012278
:1016800000212D20FFF7CEFE022200213F20FFF790
:10169000C9FE032200215120FFF7C4FE04220221CB
:1016A0001220FFF7BFFE052202212420FFF7BAFE19
:1016B000062202214820FFF7B5FE072202215A2008
:1016C000FFF7B0FE15A204210020FFF793FE14A23D
:1016D00006210020FFF78EFE042106A26C2021E0E7
:1016E000000C01403F5100082F5B00084931000009
:1016F00056310000410000005600000052B80E4074
:10170000240000200AD701405F0000004932000099
:1017100056320000493300005633000049340000BF
:1017200056340000FFF766FEAFF2340206216C204B
:10173000FFF760FEAFF2440204213620FFF75AFEA5
:10174000AFF24C0206213620FFF754FE0B4D2868FD
:1017500002F0F9FF022402460B46472104200094C0
:10176000FFF75AFB686802F0EEFF02460B4647217E
:1017700006200094FFF750FB38BD00002400002035
:1017800008B50121082001F06AFC4FF4F070ADF8B3
:10179000000028208DF8030003208DF80200694620
:1017A000014801F074FA08BD000C0140F8B50121B0
:1017B000042001F054FC4FF48075ADF80050102661
:1017C0001F4F8DF8036003248DF8024069463846A8
:1017D00001F05DFA2946384601F0C3FA01211020D4
:1017E00001F03DFC6D01ADF800508DF803608DF8FF
:1017F0000240144C6946204601F049FA2946204629
:1018000001F0AFFA10490120C1F8B401F8BD38B5B4
:101810000121042001F023FC2020ADF8000010205D
:101820008DF803000320064C8DF80200694620461F
:1018300001F02DFA2021204601F093FA38BD000076
:101840000008014000100140000022427FB50D4613
:1018500004460121022001F00BFCADF80440ADF874
:10186000005000244B4DADF80640ADF802406946EB
:10187000284601F0C7FE01221146284602F07FF9F2
:101880001D218DF80C108DF80D4003208DF80E00F1
:1018900001208DF80F0003A801F0C9FD01212846A1
:1018A00002F058F97FBD30B585B0012144F2050042
:1018B00001F0D5FB4FF48060ADF8100004208DF8E6
:1018C0001300354D03248DF8124004A9284601F079
:1018D000DEF96915ADF8101018208DF813008DF899
:1018E000124004A9284601F0D2F94FF4E1300090EB
:1018F00000200C21ADF80A10ADF80600274CADF819
:101900000C00ADF80800ADF804006946204601F06F
:1019100025FC012240F22551204601F09CFC0121CA
:10192000204601F08EFC05B030BD08B54FF4806054
:1019300001F078FD25208DF8000000208DF80100D1
:10194000684601F074FD08BD70B5144E05460024CC
:10195000295D00290BD0304601F0C9FC80213046BA
:1019600001F026FD0028F9D0641CE4B2F0E770BD58
:1019700010B5084C0121204602F015FB002807D0C5
:101980000121204602F01BFBBDE810400448DBE7C4
:1019900010BD000000040040000801400038014074
:1019A0006800002070B5F84C40F22551204601F047
:1019B00009FD00281CD0204601F09DFCF34CC5B267
:1019C0006088000414D46088B0F5C87F11D2F04E4E
:1019D0000021304602F0BBFA608818B90121304678
:1019E00002F0B8F86088EB490144401C60800D703B
:1019F00070BD608840F40040608070BD10B5E44C5C
:101A00000121204602F0CFFA00280ED0DF4841889D
:101A100041F4004141800121204602F0D0FA2046E5
:101A2000BDE81040002102F095B810BD7FB50D460D
:101A300004460121042001F01BFBADF80440ADF881
:101A400000500024D24DADF80640ADF80240694682
:101A5000284601F0D7FD01221146284602F08FF8F2
:101A60000121284602F076F81E208DF80C008DF832
:101A70000D4002208DF80E0001208DF80F0003A804
:101A800001F0D5FC7FBD70B586B00121042001F0C6
:101A9000E6FA0121480401F0EBFA0820ADF8100045
:101AA0000425BD4E8DF8135003248DF8124004A96F
:101AB000304601F0ECF8ADF8105018208DF8130006
:101AC0008DF8124004A9304601F0E1F84FF461406E
:101AD000002400900C20ADF80A00AB4DADF8064094
:101AE000ADF80C40ADF80840ADF804406946284612
:101AF00001F034FB012240F22551284601F0ABFBF6
:101B00000121284601F09DFB41F61F416320FFF7AC
:101B10008DFF9E48448000219D4802F01BF806B0CE
:101B200070BD08B54FF4806001F07CFC26208DF874
:101B3000000000208DF8010001208DF802008DF8D2
:101B40000300684601F073FC08BD10B5FFF79BFF6A
:101B5000BDE81040E5E77CB50446EF208DF80000B5
:101B60008A4D01208DF80100A868010E8DF8021041
:101B7000010C8DF80310010A8DF804108DF8050092
:101B800007208DF8060000268DF807606E800CE0B7
:101B9000012000F0F5FF6888000406D56E806946D4
:101BA0007C4802F04FFC002804D1641E2404240C5D
:101BB000EED100207CBD10B5744CA068000E00F082
:101BC000CFFEA068C0F3074000F0CAFE2089C0F332
:101BD000072000F0C5FE207ABDE8104000F0C0BE2E
:101BE0002DE9F0411E4614460D46074600F0D3FE8F
:101BF000FFF7E1FF012000F0B3FE082000F0C1FE76
:101C00001B2000F0ADFE384600F0AAFE280A00F0C6
:101C1000A7FEE8B200F0A4FE200A00F0A1FEE0B2A8
:101C200000F09EFE07EB1520E9B2084400EB1420FB
:101C3000E1B20844243000F09BFE4FF4FA60FFF755
:101C40008AFF58B1C27A837A417A02EB032232804A
:101C5000427B007B02EB0020708000E0FF21084601
:101C6000BDE8F08110B5044600F095FEFFF7A3FF34
:101C7000012000F075FE042000F083FE022000F039
:101C80006FFE204600F06CFEE01D00F071FE4FF488
:101C9000FA60FFF760FF08B1407A10BDFF2010BD69
:101CA00010B500F078FEFFF786FF012000F058FE27
:101CB000032000F066FE012000F052FE052000F037
:101CC00057FE4FF4FA60FFF746FF08B1407A10BDA7
:101CD000FF2010BD70B5FFF7E3FF002839D10120C8
:101CE000FFF7C0FF4FF47A7470BB284B4FF4967225
:101CF000103300210120FFF773FF28BB0020FEF7FF
:101D0000A5FD002125A20846FEF72BFF27A20221F0
:101D10000020FEF726FF1D4D0323103504212A88DD
:101D20000220FFF734F822A204210020FEF719FF59
:101D30006A88032307210420FFF729F8204600F0D2
:101D40001FFF1D49012008702046BDE8704000F0CB
:101D500017BF70BD212861D2DFE800F011133A3CB3
:101D60003E40424446484A4C606060604C4E606071
:101D700060506060525456585A60605C5E000FA01C
:101D800070470FA070470000004400402C00002066
:101D9000000800409C00002000080140536561726B
:101DA00063682073756363657373000049443A0088
:101DB00073636F72653A0000010000204F4B000012
:101DC000CAFDBEDDB0FCBDD3CAD5B4EDCEF3000074
:101DD000A6A07047AAA07047AEA07047B5A07047F4
:101DE000BCA07047C2A07047CFA07047D1A0704779
:101DF000D4A07047D7A07047DAA07047DDA0704725
:101E0000E5A07047E8A07047EAA07047EDA07047D2
:101E1000F1A07047F5A07047F7A07047F9A0704790
:101E200070B5054600F0B7FDFFF7C5FE012000F0D4
:101E300097FD032000F0A5FD1D2000F091FD21205D
:101E400000F096FD4FF4FA60FFF785FE38B1C17AD5
:101E5000827A447A01EB0221298054B100E0FF2408
:101E60002046FFF777FF0146EBA002F069FD204610
:101E700070BDC17A807A01EB0021E9A0F5E770B569
:101E80000C46054600F087FDFFF795FE012000F0A7
:101E900067FD072000F075FD0C2000F061FD280AA9
:101EA00000F05EFDE8B200F05BFD200A00F058FD96
:101EB000E0B200F055FDE8B200EB152000EB142075
:101EC000E1B20844143000F053FD4FF4FA60FFF71C
:101ED00042FE08B1407A70BDFF2070BD10B500F021
:101EE0005AFDFFF768FE012000F03AFD032000F0E4
:101EF00048FD0D2000F034FD112000F039FD4FF4B5
:101F0000FA60FFF728FE08B1407A10BDFF2010BD2F
:101F100070B5C94DC74CAE1531E08021284600F0A0
:101F20000CFF012809D18021284600F006FF002877
:101F3000F9D1E26842B1521EE2604021284600F029
:101F4000FCFE012804D00FE040F22B10E060F4E723
:101F50004021284600F0F1FE0028F9D1E068B0F5F4
:101F6000967F14D0401CE060B4A204210020FEF74C
:101F7000F8FD032300210620E268FEF708FF314642
:101F8000284600F0DAFE0028C7D0E06870BD0020C7
:101F9000E9E710B50020FEF759FC0021A9A2084688
:101FA000FEF7DFFD322000F0EBFDFFF7B1FF80B25E
:101FB000A0F580712B3904D00121FFF760FF18B123
:101FC0000DE0FFF78BFFFAE70020FEF73FFC002152
:101FD000A0A20846FEF7C5FDA2490020087040F205
:101FE000DC5000F0CDFD9348001DFFF719FF0020E5
:101FF000FEF72CFC00219CA20846FEF7B2FD9D488E
:102000008C49032300888988421A00210420FEF7A6
:10201000BEFEBDE81040322000F0B2BD70B50C46E7
:10202000054600F0B8FCFFF7C6FD012000F098FC63
:10203000062000F0A6FC062000F092FC284600F0E6
:102040008FFC200A00F08CFCE0B200F089FC05EB6C
:102050001420E1B208440D3000F08AFC4FF4FA601D
:10206000FFF779FD08B1407A70BD05E1B4ABB8D097
:10207000C6F7C9CFC3BBD3D0CAD6D6B800000000BC
:10208000C2BCC8EBD6B8CEC6CDBCCFF1CAA7B0DCB7
:1020900000000000D6B8CEC6CDBCCFF1CCABB8C9DD
:1020A000A1A2CCABB5ADB6F8C9FAB2BBB3C9CCD816
:1020B000D5F70000D6B8CEC6CDBCCFF1CCABCAAAFE
:1020C000A1A2CCABBAFDB6F8C9FAB2BBB3C9CCD8A1
:1020D000D5F70000D6B8CEC6CDBCCFF1CCABC2D2BE
:1020E000B6F8C9FAB2BBB3C9CCD8D5F70000000026
:1020F000D6B8CEC6CDBCCFF1D5FDB3A3A3ACB5AB9E
:10210000CCD8D5F7B5E3CCABC9D9A3A8BBF2C3E60D
:10211000BBFDCCABD0A1A3A9B6F8C9FAB2BBB3C979
:10212000CCD8D5F700000000D6B8CEC6B2BBC6A545
:10213000C5E40000C3BBCBD1CBF7B5BDD6B8CEC686
:1021400000000000CCD8D5F7BACFB2A2CAA7B0DC45
:1021500000000000C9BEB3FDC4A3B0E5CAA7B0DC4F
:1021600000000000C7E5BFD5D6B8CEC6BFE2CAA7FB
:10217000B0DC0000BBBAB3E5C7F8C4DAC3BBD3D048
:10218000D3D0D0A7D4ADCABCCDBCB6F8C9FAB2BBC7
:10219000B3C9CDBCCFF10000B6C1D0B420464C418C
:1021A000534820B3F6B4ED00CEB4B6A8D2E5B4EDF2
:1021B000CEF30000CEDED0A7BCC4B4E6C6F7BAC5E5
:1021C00000000000BCC4B4E6C6F7C9E8B6A8C4DA8B
:1021D000C8DDB4EDCEF30000BCC7CAC2B1BED2B3F5
:1021E000C2EBD6B8B6A8B4EDCEF30000D6B8CEC6D2
:1021F000BFE2C2FA00000000B5D8D6B7B4EDCEF306
:1022000000000000C4A3BFE9B7B5BBD8C8B7C8CFAA
:10221000C2EBD3D0CEF300000D0A257300000000FE
:102220000D0AD3D0D0A7D6B8CEC6B8F6CAFD3D2584
:10223000640000002C000020000C01402020202021
:102240000000000044656C6574652066696E676512
:102250007200000044656C65746520737563636586
:1022600073730000050000207368656E6779753A26
:10227000000000002C020020FF20F5E610B500F061
:102280008AFBFFF798FC012000F06AFB032000F0B6
:1022900078FB052000F064FB092000F069FB4FF497
:1022A000FA60FFF758FC08B1407A10BDFF2010BD5E
:1022B00010B500F070FBFFF77EFC012000F050FB32
:1022C000032000F05EFB032000F04AFB072000F033
:1022D0004FFB4FF4FA60FFF73EFC08B1407A10BDA7
:1022E000FF2010BD70B5002425464FF47A76052DE9
:1022F00020D2DFE805F003203D607700641CE4B2E3
:102300000020FEF7A3FA0021FDA20846FEF729FCF3
:10231000FFF7C6FC00287ED10120FFF7A3FC0028B0
:1023200079D1FEF793FA0021F9A20846FEF719FCCD
:10233000002401256FE0641CE4B20020FEF786FA59
:102340000021F7A20846FEF70CFCFFF7A9FC0028C5
:1023500061D10220FFF786FC00285CD1FEF776FAF7
:102360000021EBA20846FEF7FCFB0024022552E008
:102370000020FEF76BFA0021EDA20846FEF7F1FB04
:10238000FFF796FF00284FF0000008D0FEF75EFA36
:102390000021EBA20846FEF7E4FB002416E0FEF75E
:1023A00055FA0021EAA20846FEF7DBFB032530467A
:1023B00000F0E6FB2FE00020FEF748FA0021E8A23B
:1023C0000846FEF7CEFBFFF759FF08B10025EEE700
:1023D0000020FEF73BFA0021E6A20846FEF7C1FB0B
:1023E0000425E4E70020FEF731FA0021E5A20846C3
:1023F000FEF7B7FBE6A202210020FEF7B2FB4FF486
:102400009675FFF785FD81B2A942FAD20220FFF747
:1024100005FE60B100254FF4487000F0B1FB052CBB
:102420007FF465AFBDE870400020FEF70FBA0020D2
:10243000FEF70CFA0021DAA20846FEF792FBDBA2B7
:1024400002210020FEF78DFB40F2DC5000F098FBEB
:10245000D9490020C86007E670B5D84D202128462C
:1024600000F06BFCD44C01280BD12021284600F051
:1024700064FC0028F9D12078401CC0B220700428E8
:1024800006D020784FF47A756E10022803D012E03F
:1024900000202070E8E50020FEF7D8F90021C8A24E
:1024A0000846FEF75EFB284600F06AFB304600F067
:1024B00067FBFFF717FF207803280FD10020FEF7F6
:1024C000C5F90021C0A20846FEF74BFB284600F0E4
:1024D00057FB304600F054FBFFF75BFD20780228E5
:1024E000D8D10020FEF7B2F9284600F049FB30466B
:1024F00000F046FBBDE87040FFF7ECBB08B50121DA
:10250000042000F0ACFD4020ADF8000028208DF83C
:10251000030003208DF802006946AD4800F0B7FBC8
:1025200008BD2DE9F0411E4614460D46074600F051
:1025300032FAFFF740FB012000F012FA082000F009
:1025400020FA042000F00CFA384600F009FA280AB4
:1025500000F006FAE8B200F003FA200A00F000FAF0
:10256000E0B200F0FDF907EB1520E9B2084400EBFA
:102570001420E1B208440D3000F0FAF94FF4FA608B
:10258000FFF7E9FA58B1C27A837A417A02EB032263
:102590003280427B007B02EB0020708000E0FF2154
:1025A0000846BDE8F08170B50C46054600F0F3F929
:1025B000FFF701FB012000F0D3F9052000F0E1F95D
:1025C0000E2000F0CDF9284600F0CAF9204600F0B0
:1025D000C7F92819143000F0CBF94FF4FA60FFF76F
:1025E000BAFA10B1447A5CB100E0FF242046FFF74C
:1025F000B1FB0146AFF2E03002F0A2F9204633E52C
:1026000074A002F09DF9F9E770B5044600F0C3F933
:10261000FFF7D1FA012000F0A3F9032000F0B1F98F
:102620000F2000F09DF9132000F0A2F94FF47A700A
:10263000FFF791FAC8B1C17B827B457A01EB022199
:1026400089B22180427CA270427D837C067D02EBB0
:102650000362C37C1B0403EB06231A446260C27D41
:102660002272407E60725DB100E0FF252846FFF7D0
:1026700071FB0146AFF2604002F062F92846F3E4D4
:1026800059A002F05DF9A1785DA002F059F960A0AF
:10269000616802F055F9617A4FF4165041435FA02A
:1026A000EAE770B5044600F076F9FFF784FA0120F6
:1026B00000F056F9072000F064F9152000F050F9F9
:1026C000200E00F04DF9C4F30740054600F048F92C
:1026D000C4F30720064600F043F9E0B200F040F9E9
:1026E00005EB14603044E1B208441D3000F040F9BD
:1026F000314E4FF4FA60B460FFF72DFA94E0000019
:10270000506C65617320746F756368210000000070
:1027100046696E67657220636F727265637400004C
:10272000506C6561732074616761696E21000000FF
:10273000436F6D7061726520747769636500000096
:10274000706C65617320616761696E210000000033
:102750005477696365206172652073616D6500005F
:1027600047656E657261746520207072696E7421B0
:102770000000000066696E676572207375636365AB
:1027800073732100496E74707574204944210000F0
:1027900073617665207769746820454E5421210065
:1027A0004164642066696E676572000073756363D7
:1027B00065737321212121002C000020000C0140B1
:1027C000414444204652210044454C2046522100B9
:1027D000000801400D0AC9E8D6C3B2CECAFDB3C98C
:1027E000B9A6A3A1000000000D0AC4A3BFE9D7EE5B
:1027F000B4F3D6B8CEC6C8DDC1BF3D256400000025
:102800000D0AB6D4B1C8B5C8BCB63D2564000000F9
:102810000D0AB5D8D6B73D25780000000D0AB2A83C
:10282000CCD8C2CA3D25640008B1457A00E0FF2536
:10283000B4604DB12846FFF78DFA0146AFF228602B
:1028400002F07EF828460FE457A002F079F8F9E785
:102850002DE9F0410E46074600F09DF8FFF7ABF971
:10286000012000F07DF8242000F08BF8182000F003
:1028700077F8384600F074F80024305D00F070F806
:10288000305D641C2844E4B285B2202CF5D378195D
:102890003D3080B200F06CF84FF4FA60FFF75BF95E
:1028A00008B1407A7DE6FF207BE670B50C46054610
:1028B00000F071F8FFF77FF9012000F051F80420D3
:1028C00000F05FF8192000F04BF8284600F048F8B7
:1028D00005F11E0000F04CF84FF4FA60FFF73BF9E9
:1028E00048B1417A002283189B7AA354521CD2B279
:1028F000202AF8D300E0FF210846BEE470B5044664
:1029000000F049F8FFF757F9012000F029F80020FE
:1029100000F026F8002000F023F8C82000F030F97D
:10292000264A508800040BD5254900200B78EF2B50
:1029300005D14B78012B02D18B79072B02D0508027
:1029400001209AE44B798D7803EB0563CD78097902
:102950002D0405EB012119442160508000208CE4F6
:1029600018490A885206FCD51649091D0880704787
:1029700010B50446000AFFF7F3FFE0B2BDE81040CF
:10298000EEE710B50446C0F30720FFF7E9FFE0B219
:10299000BDE81040E4E710B5EF20FFF7E1FFBDE828
:1029A00010400120DCE700000D0AC9E8D6C3B5D805
:1029B000D6B7B3C9B9A6A3A1000000002C0000201F
:1029C0009C00002000440040008870472DE9F04141
:1029D00016460F460546002407E037F8141028462F
:1029E00001F005FC641CA4B2AD1CB442F5D3BDE8F3
:1029F000F08110B5002305E030F8024B21F81340B8
:102A00005B1C9BB29342F7D310BD2DE9F05FA0F1A0
:102A10000064154688468246B4F5002F50D201F076
:102A2000EAFAE70AC4F34906C6F58064A54200D86D
:102A30002C46DFF8E4B04FF0006000EBC720814681
:102A40004FF480623449FFF7D4FF00204FF6FF7245
:102A500006E033183BF81310914203D1401C80B2BA
:102A6000A042F6D3A04223D2484601F0FEFA00204D
:102A70005A4606E038F810108319401C22F813104B
:102A800080B2A042F6D348464FF480622249FFF755
:102A90009DFFA54210D0281B08EB4408A244002645
:102AA00085B24FF480647F1CA542C4D82C46C2E78F
:102AB000224641465046EAE7BDE8F05F01F0A7BA7A
:102AC000BDE8F09F13B5012201A9FFF79EFF1CBDD1
:102AD00005221249124898E7104910B50522491DF0
:102AE0000F48FFF786FF0D48401D0178202908D1C7
:102AF0004178202905D18178202902D1C078202869
:102B000001D0002010BDFFF7E3FF10BD03490522EF
:102B1000491D03486DE700003802002040000020F6
:102B200000F0000810B56FF0040000F0C0FC204871
:102B300020490068B0FBF1F01F49C0B200EB400231
:102B40000870C2EBC0104FF6FF7202EAC000488066
:102B500010BD1949097848434FF0E021486100232E
:102B60008B61086940F0010008610869C20701D063
:102B7000C003FAD5086920F0010008618B61704735
:102B80000D49498848434FF0E021486100238B619B
:102B9000086940F0010008610869C20701D0C0035C
:102BA000FAD5086920F0010008618B6170470000C8
:102BB0001000002000127A004A00002006488047DA
:102BC00006480047FEE7FEE7FEE7FEE7FEE7FEE712
:102BD000FEE7FEE7FEE7FEE77106000831010008A8
:102BE0008F4910B5884206D10121042000F049FA2E
:102BF000002104203BE08B49884206D101210820B6
:102C000000F03FFA0021082031E08749884206D1D0
:102C10000121102000F035FA0021102027E083491F
:102C2000884206D10121202000F02BFA002120202B
:102C30001DE07F49884206D10121402000F021FAA1
:102C40000021402013E07B49884206D101218020E9
:102C500000F017FA0021802009E0774988420AD164
:102C600084150121204600F00CFA00212046BDE821
:102C7000104000F006BA10BD10B50121084600F062
:102C800000FA0021BDE81040012000F0FAB9F0B5CB
:102C9000CC78002204F00F03E40601D58C7823439E
:102CA0000C784FF00F0C14F0FF0F4FF0010E1BD0FB
:102CB00005680E880EFA02F42640A64210D196004E
:102CC0000CFA06F725EA070703FA06F5CE783D4326
:102CD000282E02D0482E02D002E0446100E00461B8
:102CE000521C082AE5D305600A88FF2A1CD94468CB
:102CF000002202F108060EFA06F50E882E40AE42BA
:102D00000ED196000CFA06F7BC4303FA06F7CE780C
:102D10003C43282E00D14561CE78482E00D1056174
:102D2000521C082AE5D34460F0BD4FF6FF710180C4
:102D3000022181700421C170704702460020926810
:102D40000A4200D001207047806880B27047024676
:102D50000020D2680A4200D001207047C06880B2CB
:102D6000704701617047416170470AB10161704766
:102D700041617047C160704741F480328261816176
:102D800082618169806970472C4B10B51A684FF6D3
:102D90008074224042EA00100843186010BD2849A0
:102DA000C8617047F0B5254C002801DAE36900E0FE
:102DB0006368450D2E0185B2C0F30157B540C0F3DD
:102DC0000342032F05D0C6020AD503269640B3431B
:102DD00007E023F07062636823F07063636002E0D1
:102DE000AB4343F0706201B12A43002801DAE2618B
:102DF000F0BD6260F0BD10B58A0721F003040F49F1
:102E0000120F21440F238C6893409C438C608B6885
:102E1000904003438B6010BD0949C1F8DC00704746
:102E200000080140000C0140001001400014014066
:102E300000180140001C014000200140000001403A
:102E400000002042A548016841F00101016041688D
:102E5000A34A114041600168A24A11400160016823
:102E600021F480210160416821F4FE0141604FF4AA
:102E70001F018160704799490A6822F480320A6014
:102E80000A6822F480220A60B0F5803F07D0B0F5CE
:102E9000802F03D1086840F4A020086070470868BC
:102EA00040F48030F9E70346002059098B4A012994
:102EB0000AD002290AD0516A03F01F02012393406D
:102EC0000B4200D0012070471168F5E7116AF3E763
:102ED00018B500204FF4A06400903120FFF7E3FF05
:102EE0000099491C0091A14201D00028F5D0312061
:102EF000FFF7D9FF002800D0012018BD774A1168DC
:102F000021F0F80141EAC00010607047764908607E
:102F10007047724B5A68084322F47C121043586081
:102F200070477149086670476C4A516821F0030187
:102F30000143516070476948406800F00C007047D9
:102F4000664A516821F0F001014351607047634ABD
:102F5000516821F4E0610143516070475F4A516854
:102F600021F4605141EAC000506070475B4A00297B
:102F7000517A01D0014300E08143517270475A49B0
:102F8000C1F8D8007047554A516821F440410143C7
:102F9000516070475149002281F8202081F820209B
:102FA000012802D0042802D1052081F820007047B2
:102FB0004E490860704749490A6A02430A627047ED
:102FC0004A4944390860704730B5444A5168484B13
:102FD00011F00C0103D0042901D0082901D00360AD
:102FE00012E05168536801F470114FF0020413F4B9
:102FF000803F04EB914102D053689B0301D53D4BC8
:1030000000E03B4B5943016051680F2303EA111163
:10301000394B5C5C0168E14041605468072505EA72
:1030200014241C5D21FA04F48460546805EAD42455
:103030001B5DD940C1605268032303EA92322E4BD4
:103040001B1F9A5CB1FBF2F1016130BD234A0029DC
:10305000516901D0014300E08143516170471F4A2B
:103060000029916901D0014300E0814391617047DB
:103070001A4A0029D16901D0014300E08143D1619E
:103080007047164A0029D16801D0014300E081430E
:10309000D1607047114A0029116901D0014300E055
:1030A00081431161704711494039086070470E49EA
:1030B000C86470470949C87170470848416A41F0BF
:1030C000807141627047054A0146002092680A42B9
:1030D00000D00120704701498872704700100240FB
:1030E0000000FFF8FFFFF6FE00004242800442426B
:1030F00000127A0000093D0052000020C44910B5BA
:1031000088420AD101218C032046FFF7BAFF2046EE
:10311000BDE810400021FFF7B4BFBE49884202D18C
:1031200001214C0410E0BC49884202D101218C04E9
:103130000AE0BA49884202D10121CC0404E0B8492E
:1031400088420AD101210C052046FFF7A3FF204643
:10315000BDE810400021FFF79DBF10BD30B504460B
:10316000008A85B00D464CF6FF710840E98801439E
:103170002182A0894EF6F3110840A9882A891143BB
:103180006A8902431143A181A08A4FF6FF4108409A
:10319000A9890143A1826846FFF716FF9C48844233
:1031A00001D1039800E00298A189090400EBC00155
:1031B00001EB0010296801D5490000E08900B0FB4F
:1031C000F1F06422B0FBF2F109010B096FF0180570
:1031D0006B4300EB8300A3891D044FF0320306D537
:1031E00003EBC000B0FBF2F000F0070005E003EBDA
:1031F0000010B0FBF2F000F00F000843208105B092
:1032000030BD4FF41651016000218180C1800181E1
:103210000C2242818181704710B5028A4FF2FF0370
:103220001A400B884C8823438C88C9880C4323435D
:103230001343038210BD0021018041808180C18041
:1032400070470029818902D041F4005101E021F446
:1032500000518181704710B5C1F3421301F01F0482
:103260000121A140012B07D0022B07D01430002AE6
:10327000026805D00A4304E00C30F8E71030F6E7A6
:103280008A43026010BD002A828A01D00A4300E00E
:103290008A4382827047028A22F00F020282028AE7
:1032A0000A4302827047828922F400628281828905
:1032B0000A43828170470029818902D041F00201CE
:1032C00001E021F0020181817047028A22F0200290
:1032D0000282028A0A43028270470029018A02D0D0
:1032E00041F4804101E021F4804101827047C1F343
:1032F0000801818070478088C0F308007047818989
:1033000041F0010181817047028BD2B20283028BAE
:1033100042EA012101837047028B02F47F4202835B
:10332000028B0A43028370470029818A02D041F050
:10333000200101E021F02001818270470029818A6B
:1033400002D041F0100101E021F0100181827047AC
:103350000029818A02D041F0080101E021F0080132
:10336000818270470029818902D041F4004101E047
:10337000C1F30E01818170470029818A02D041F496
:10338000006101E021F4006181827047828A22F0AD
:1033900004028282828A0A43828270470029818ADB
:1033A00002D041F0020101E021F002018182704768
:1033B0000246002012880A4200D001207047C9430B
:1033C0000180704770B501F01F0501260024C1F38C
:1033D000421306FA05F2012B0FD0022B0FD0838A7D
:1033E0004FEA11210088134206FA01F600EA0600AE
:1033F00001D000B10124204670BD8389F0E7038A23
:10340000EEE70A0A01219140C9430180704700009C
:10341000003801400044004000480040004C00409B
:10342000005000402849084328490860704730B5DB
:103430000F23C27801780125F2B1244A126801F104
:10344000E02102F4E062C2F5E062120AC2F1040473
:10345000D3404278A24084781C401443220181F872
:103460000024007800F01F018D404009800000F129
:10347000E020C0F8005130BD01F01F008540480930
:10348000800000F1E020C0F8805130BD104A1140AA
:1034900001430E48001F016070470C4A121D0029AD
:1034A000116801D0014300E08143116070474FF083
:1034B000E0210428086903D020F004000861704767
:1034C00040F00400FAE700000000FA050CED00E00F
:1034D00080FFFF1FF94910B5884202D10121C414B1
:1034E00086E0B0F1804F09D0F54988420DD1012125
:1034F0000220FFF7CFFD0021022064E001210846F1
:10350000FFF7C8FD002101205DE0EE49884206D1A9
:1035100001210420FFF7BEFD0021042053E0EA4909
:10352000884206D101210820FFF7B4FD00210820C0
:1035300049E0E649884206D101211020FFF7AAFDA3
:10354000002110203FE0E249884206D101212020DD
:10355000FFF7A0FD0021202035E0DE49884202D19E
:103560000121441444E0DC49884202D10121CC0409
:103570003EE0DA49884202D101210C0538E0D84901
:10358000884202D101214C0532E0D649884206D159
:1035900001214020FFF77EFD0021402013E0D249A9
:1035A000884206D101218020FFF774FD0021802090
:1035B00009E0CE4988420AD1841501212046FFF74F
:1035C00069FD00212046BDE81040FFF763BDC849F2
:1035D000884202D101210C040AE0C649884202D186
:1035E00001214C0404E0C44988420AD101218C0421
:1035F0002046FFF746FD2046BDE810400021FFF7BA
:1036000040BD10BD30B50288AC4CB24DA0420DD0CB
:10361000A8420BD0B0F1804F08D0A94B984205D0FA
:10362000A84B984202D0A84B984203D122F07003D5
:103630004A881A43A54B984206D0A54B984203D01E
:1036400022F44073CA881A4302808A8882850A88D5
:103650000285A0420AD0A84208D0A54A904205D0CF
:10366000A44A904202D0A44A904201D1097A01862C
:103670000121818230BD30B5028C22F0010202842A
:10368000028C8388048B22F0020224F073050C88DC
:103690002C430D8915434A882A43884DA8420BD0F4
:1036A0008C4DA84208D0924DA84205D0914DA84219
:1036B00002D0914DA8420DD122F008054A8923F489
:1036C00040732A4322F004058A882A438D891D43CA
:1036D000CB892B4383800483C9888186028430BDD3
:1036E00070B5028C22F010020284028C8388048B55
:1036F0000D8824F4E6464FF6FF7404EA05253543A9
:103700000E8922F0200204EA061616434A8804EACB
:1037100002123243694EB04202D06E4EB04215D111
:1037200022F080064A8923F4406304EA02123243FD
:1037300022F040068A8804EA021232438E8904EAA3
:1037400086061E43CB8904EA8303334383800583C3
:10375000C9880187028470BD70B5028C22F4807222
:103760000284028C8388848B0D8824F073042543A3
:103770000E894FF6FF7422F4007204EA06261643FF
:103780004A8804EA022232434C4EB04202D0514EE3
:10379000B04215D122F400664A8923F4405304EA6A
:1037A0000222324322F480668A8804EA02223243EB
:1037B0008E8904EA06161E43CB8904EA03133343B9
:1037C00083808583C9888187028470BD70B5028C2F
:1037D00022F480520284058C8288838B0C8823F427
:1037E000E6464FF6FF7303EA0424344325F40056FB
:1037F0000D8903EA053535434E8803EA06362E4324
:103800002E4DA84202D0334DA84205D122F4804566
:103810008A8903EA82122A4382808483C988A0F8B5
:103820004010068470BD828B22F440628283828BBA
:103830004FF6FF7303EA01210A4382837047828BAC
:1038400022F00C028283828B0A4382837047028BB0
:1038500022F440620283028B4FF6FF7303EA0121D8
:103860000A4302837047F0B5048C24F010040484EA
:10387000078B048C4FF6FF7527F4734705EA033373
:103880003B4305EA02221A430C4B05EA0116984213
:103890000ED0104B98420BD0B0F1804F08D0084B9F
:1038A000984205D0074B984202D0074B984225D149
:1038B00024F02001314341F0100124E0002C0140AC
:1038C0000004004000080040000C004000100040D0
:1038D0000014004000340140004C01400050014001
:1038E0000054014000180040001C0040002000402F
:1038F00000400140004401400048014024F0A00382
:103900000B4343F0100102830184F0BD028B22F0CF
:103910000C020283028B0A430283704770B5048C49
:1039200024F001040484058B048C4FF6FF7606EA2C
:103930000313134325F0F305F84A2B4390420ED0AE
:10394000F74A90420BD0B0F1804F08D0F54A904230
:1039500005D0F54A904202D0F44A904202D124F0B8
:10396000020201E024F00A020A4342F0010103834B
:10397000018470BD2DE9F84F0D4604460888E74FD5
:10398000DFF89CC3DFF89C83DFF89C934988AA8802
:103990002B894FF0804A48B304282FD04FF6FF768A
:1039A0000828934632D0208C9E4620F480502084F4
:1039B000A38B208C06EA0132009223F4734306EABB
:1039C0000B221A4306EA0E331343BC420AD0644565
:1039D00008D0544506D0444504D04C4502D0D34AC3
:1039E000944242D120F40050009940E02046FFF775
:1039F00095FFE9882046BDE8F84F87E72046FFF7A6
:103A000032FFE9882046BDE8F84F20E7208C20F4FB
:103A100080702084B4F81CE0208C06EA031306EAC8
:103A200001222EF0F30E43EA0B0343EA0E03009249
:103A3000BC420AD0644508D0544506D0444504D061
:103A40004C4502D0B94A944203D120F40070009949
:103A500001E020F42060084340F48070A3832084B8
:103A6000E9882046BDE8F84FE9E620F40240084323
:103A700040F48050A3832084E9882046BDE8F84FB5
:103A8000D1E62DE9F0410C4600264988074601257C
:103A900001B90226A288012A00D1022520882389A3
:103AA0000028384610D0FFF7DEFEE1883846FFF7E1
:103AB000CEFE23892A4631463846FFF72FFFE1889C
:103AC0003846BDE8F04121E7FFF728FFE188384696
:103AD000FFF71CFF23892A4631463846FFF7C3FE0D
:103AE000E1883846BDE8F041B1E610B50A884B8858
:103AF000CC881A438B8823431A430B891A434B897A
:103B000089891A430A43A0F8442010BD4FF6FF717B
:103B1000818000210180C1804180017270470021B5
:103B2000018041808180C180018141818181C18189
:103B3000704700210180418001228280C180018183
:103B400070470021018041808180C18001814181D5
:103B5000818170470029018802D041F0010101E014
:103B600021F0010101807047002930F8441F02D084
:103B700041F4004101E0C1F30E0101807047002AC9
:103B8000828901D00A4300E08A43828170478182A2
:103B900070471143A0F848107047002A828901D06D
:103BA0000A4300E08A4382817047018921F00701BE
:103BB00001817047028922F070020A430281704736
:103BC00000B50346FFF7F6FF188940F0070018819B
:103BD00000BD70B516460D46602904464FF001023F
:103BE00031460AD0FFF79AFE29462046FFF7E2FF4A
:103BF000208940F00700208170BDFFF734FEF3E715
:103C000030B504894FF6FF7505EA03231343E4B288
:103C10000B432343038130BD10B50446FFF7F0FF8B
:103C2000208940F07700208110BD10B50446FFF7D1
:103C3000E7FF208940F48040208110BD0185828209
:103C40007047028822F070020A430280704770B504
:103C50000589048B068C25F007050D434FF6FC41C2
:103C60000C4040F201110C434FF6FF7101EA0311C1
:103C700026F022061143314305810483018470BD7F
:103C8000028B22F070020A4302837047028B4FF6C8
:103C9000FF7322F4E04203EA0121114301837047DC
:103CA000828B22F070020A4382837047828B4FF628
:103CB000FF7322F4E04203EA01211143818370473C
:103CC0000029018802D041F0800101E021F080014B
:103CD000018070470029818802D041F0040101E091
:103CE00021F00401818070470029818802D041F0D1
:103CF000080101E021F008018180704700298188D6
:103D000002D041F0010101E021F001018180704702
:103D1000028B22F008020A4302837047002C014004
:103D2000003401400004004000080040000C004046
:103D3000028B4FF6FF7322F4006203EA0121114364
:103D40000183EAE7828B22F008020A438283E4E7D8
:103D5000828B4FF6FF7322F4006203EA01211143C4
:103D60008183DAE7028B22F004020A430283D4E75C
:103D7000028B4FF6FF7322F4806203EA01211143A4
:103D80000183CAE7828B22F004020A438283C4E7DC
:103D9000828B4FF6FF7322F4806203EA0121114304
:103DA0008183BAE7028B22F080020A430283B4E7E0
:103DB000028B4FF6FF73C2F30E0203EA0121114397
:103DC0000183AAE7828B22F080020A438283A4E760
:103DD000828B4FF6FF73C2F30E0203EA01211143F7
:103DE00081839AE7028C22F002020A43028494E75C
:103DF000028C22F008020A4302848EE7028C4FF6FE
:103E0000FF7322F0200203EA01111143018484E7C9
:103E1000028C4FF6FF7322F0800203EA0111114376
:103E200001847AE7028C4FF6FF7322F4007203EAF2
:103E300001211143018470E7028C4FF6FF7322F4D5
:103E4000006203EA01211143018466E7028C4FF608
:103E5000FF7322F4005203EA0131114301845CE74D
:103E600010B50123048C8B409C430484038C8A404E
:103E70001343038410BD10B50423048C8B409C4372
:103E80000484038C8A401343038410BD30B501249D
:103E9000058C00F118038C40A543058489B10829DD
:103EA0000FD0091FC1F34E001844016821F4E0410E
:103EB000016001684FF6FF7303EA022211430160BB
:103EC00030BD03EB5100016821F070010160016811
:103ED000F4E70029018802D041F0020101E021F05D
:103EE0000201018019E70029018802D041F0040194
:103EF00001E021F0040101800FE70029818802D050
:103F000041F0800101E021F08001818005E7028815
:103F100022F00802028002880A430280FDE68288BD
:103F200022F07002828082880A438280F5E602894C
:103F300022F00702028102890A430281EDE602892A
:103F400022F08002028102890A430281E5E681842F
:103F5000E3E68185E1E68186DFE60187DDE68187AC
:103F6000DBE6A0F84010D8E6028822F44072028016
:103F700002880A430280D0E6808ECEE6008FCCE62F
:103F8000808FCAE6B0F84000C7E6808CC5E6008D99
:103F9000C3E602460020128A0A4200D00120BCE695
:103FA000C9430182B9E602460020138A92890B4276
:103FB00002EA010202D0002A00D00120ADE6C94386
:103FC0000182AAE6FD4A116801F03801014311603F
:103FD0007047FA490A6822F008020A600A68024338
:103FE0000A607047F5490A6822F010020A600A6800
:103FF00002430A607047F148F1494160F14941606C
:104000007047EE48EE494160EE4941607047EB4829
:10401000016941F0800101617047E848016941F0A0
:10402000800101617047E5490420CA68D20701D0C8
:1040300001207047CA68520701D502207047C9683D
:10404000C906FBD50320704700B50346FFF7EBFF19
:1040500002E0FFF7E8FF5B1E012803D0002B00D130
:10406000052000BD002BF4D1FAE770B505464FF4EA
:1040700030263046FFF7E8FF042811D1CF4C2069E5
:1040800040F0020020616561206940F0400020613D
:104090003046FFF7D9FF216941F6FD7211402161D9
:1040A00070BD30B54FF430252846FFF7CDFF04280A
:1040B00010D1C24C206940F004002061206940F01A
:1040C000400020612846FFF7BFFF216941F6FB72DF
:1040D0001140216130BD00B50346FFF7A4FF02E0A7
:1040E000FFF7A1FF5B1E012803D0002B00D10520A4
:1040F00000BD002BF4D1FAE730B54FF43025284647
:10410000FFF7E9FF042810D1AC4C206940F004000F
:104110002061206940F0400020612846FFF7DBFF66
:10412000216941F6FB721140216130BDA349002095
:10413000C969890700D50120704770B5A525FFF72B
:10414000F5FF00B100254FF430263046FFF77CFF25
:10415000042827D1994C9A48A0609A48A060206909
:1041600040F020002061206940F04000206130468E
:10417000FFF76AFF41F6EF7604280ED1206941F679
:10418000DF7108402061206940F0100020618E48F6
:1041900005804FF40050FFF757FF052802D0216932
:1041A0003140216170BDF8B5064600204FF4005C37
:1041B00000900D466046FFF747FF042816D17F4C5C
:1041C000206940F00100206135806046FFF73CFF28
:1041D00041F6FE77042806D1B61C280C00963080E4
:1041E0006046FFF731FF216939402161F8BDF0B524
:1041F00006464FF400570D463846FFF725FF0428C2
:104200000CD16E4C206940F00100206135803846A9
:10421000FFF71AFF2169BA1E11402161F0BDF0B508
:1042200006464FF400570D463846FFF70DFF0428A9
:1042300013D1624C6248A0606248A060206940F0DF
:104240001000206135803846FFF7FEFE052804D0B7
:10425000216941F6EF7211402161F0BD2DE9F04175
:10426000C043C7B2C0F30726C0F30745040E4FF49E
:1042700000584046FFF7E8FE04283CD1DFF83CC177
:104280004F49CCF808104F49CCF80810DCF8101052
:1042900041F01001CCF81010FF2F07D04A48083029
:1042A00007804046FFF7D0FE04281BD1FF2E07D021
:1042B00045480A3006804046FFF7C6FE042811D163
:1042C000FF2D07D040480C3005804046FFF7BCFE6C
:1042D000042807D1FF2C07D03B480E30048040460D
:1042E000FFF7B2FE052806D0DCF8101041F6EF7299
:1042F0001140CCF81010BDE8F08170B505464FF4C0
:1043000030263046FFF7A0FE042818D12B4C2C484D
:10431000A0602C48A060206940F020002061206946
:1043200040F0400020613046FFF78EFE41F6DF711D
:10433000042805D0052802D022690A40226170BDF8
:10434000206908402061206940F0100020611E486B
:104350000DB1002100E0A52101803046FFF774FE79
:104360000528ECD0216941F6EF721140216170BD42
:10437000F0B5124C0746124816460D46A06011488B
:10438000A0604FF4005C6046FFF75EFE042814D185
:10439000206940F01000206135430B493D43891CE2
:1043A00045F0F80008806046FFF74EFE052804D06F
:1043B000216941F6EF7211402161F0BD00200240F9
:1043C00023016745AB89EFCD00F8FF1F1C48C0698A
:1043D000800870471A48006A704719490020096828
:1043E000890600D501207047154A0029116901D0BE
:1043F000014300E081431161704701460020104AEB
:10440000012903D0D2680A4203D17047D169C90794
:10441000FBD0012070470A49C86070470849042052
:10442000CA68D20701D001207047CA68520701D577
:1044300002207047C968C906FBD5032070470000F9
:104440000020024030B505462A460B4612F8010B03
:1044500013F8014B08B1A042F8D01CB1002802D0DB
:104460006D1CF1E7284630BD2DE9FE4F804681EAFC
:104470000300C00F0C46009021F0004123F00045DE
:10448000B8EB0200A94105D24046214690461C46A1
:104490000B46024623F00040104347D0270DC7F3D8
:1044A0000A00C3F30A510290401A019040286BDAC7
:1044B000C3F3130040F4801B0098924620B1002300
:1044C000D2EB030A63EB0B0B01985946C0F1400293
:1044D000504600F094F906460D4650465946019A5A
:1044E00000F0ACF910EB08006141002487EA11529A
:1044F00084EAE7731A4340D0009A62B3019A012A12
:104500004FEA075215DC001B61EB02014FF000423D
:1045100002EA0752CDE90042001C41F58011324603
:104520002B4600F0ACF903B0BDE8F08F40462146C1
:10453000F9E7001B61EB0201001C41F58013001834
:104540005B412018A2F5001747EB030140EAD57044
:10455000B6196D4111E06D084FEA360645EAC0759F
:104560004FEA0752001B61EB0201001C41F580116C
:1045700049084FEA30000019514132462B4603B03A
:10458000BDE8F04F00F06CB9009801224000002314
:10459000D0EB020263EBE073009821464FEAE0742F
:1045A000B8EB000061EB0401E9E783F000435BE74F
:1045B00081F0004158E72DE9FE4F81EA030404F041
:1045C000004421F0004100944FF0000B23F0004321
:1045D00050EA01045ED052EA03045BD0C3F30A54EC
:1045E000C1F30A552C44A4F2F3340194A0FB025405
:1045F000C1F3130141F48011C3F3130343F4801397
:1046000001FB024400FB034E840A970A44EA8154EA
:1046100047EA8357A4FB076802958D0A05FB0785C7
:104620004FEA932C04FB0C542705029D4FEA0658D1
:1046300047EA1637B5EB08056EEB070C870E920EAE
:1046400047EA811742EA8312A7FB0201B6EB0B018E
:1046500064EB00042B0D43EA0C335E1844EB1C5052
:10466000DA465146E7FB0201C5F313044FEA0B3368
:1046700043EA14534FEA0432019C43EA0603A4F1CF
:104680000C040294009CCDE900B400F0F8F803B0EB
:10469000BDE8F08F00200146F9E70EB5C10F80EAB2
:1046A000E0700844CA07002140F233438DE80E0051
:1046B0000A460B4600F0E3F803B000BD0EB540F229
:1046C000334102910021CDE900110A460B4600F06A
:1046D000D6F803B000BD70B5C1F30A5201F0004531
:1046E0000024C1F3130140F2FF3341F480119A42D8
:1046F00001DA002070BD40F233439A42A2F2334205
:1047000003DC524200F08AF800E090402C43F1D0E4
:10471000404270BDC1F30A5210B5C1F3130140F21B
:10472000FF3341F480119A4201DA002010BD40F2BB
:1047300033439A42A2F2334203DC524200F06EF855
:1047400010BD904010BD00F0004230F000400AD093
:10475000C10D01F56071C0F3160042EA0151C208B3
:1047600040071143704700200146704730B5041ED2
:1047700071F1000404DB4FF00044404264EB01019E
:10478000141E73F1000405DB1C464FF00043524237
:1047900063EB04038B4208BF824230BD2DE9F05F1A
:1047A0000546002092469B468846064681464024A0
:1047B0001BE0284641464746224600F02FF8534664
:1047C0005A46C01A914110D311461846224600F0AD
:1047D00016F82D1A67EB01084F46224601200021EA
:1047E00000F00DF817EB00094E41201EA4F1010462
:1047F000DFDC484631462A464346BDE8F09F202A82
:1048000004DB203A00FA02F1002070479140C2F127
:10481000200320FA03F3194390407047202A04DB59
:10482000203A21FA02F00021704721FA02F3D04029
:10483000C2F120029140084319467047202A06DB46
:10484000CB17203A41FA02F043EAE07306E041FA5E
:1048500002F3D040C2F1200291400843194670474C
:1048600010B5141E73F1000408DA401C41F1000178
:1048700092185B411A4301D120F0010010BD2DE9CF
:10488000F04D92469B4611B1B1FA81F202E0B0FAC6
:1048900080F220329046FFF7B2FF04460F4640EA0E
:1048A0000A0041EA0B0153465A46084313D0114609
:1048B00053EA010019D0C8F140025046FFF7AEFF9D
:1048C00005460E46504659464246FFF798FF0843B4
:1048D00005D0012004E020463946BDE8F08D0020D7
:1048E000054346EAE0762C4337430A986305E40A19
:1048F000A0EB08000022FD0A44EA47540A3002D522
:1049000000200146E9E7010510196941DDE9084584
:1049100000196941BDE8F04DA2E70000064C074DC3
:1049200006E0E06840F0010394E80700984710347F
:10493000AC42F6D3FBF700FC305D0008505D000888
:104940000FB4054B10B503A9044A029800F02CF8E7
:1049500010BC5DF814FB0000154E00086400002038
:104960000FB4084B10B504A902AA039800F01CF874
:10497000044602A9002000F048FA204610BC5DF869
:1049800014FB00000B4E000802E008C8121F08C10B
:10499000002AFAD170477047002001E001C1121FC0
:1049A000002AFBD1704700002DE9FF4F8DB00F4664
:1049B0000546002606E025280BD0DDE90F129047BA
:1049C0006D1C761C28780028F5D111B03046BDE862
:1049D000F08F0024A246A1460122EC4900E00443E6
:1049E00015F8013F203B02FA03F00842F7D128787E
:1049F0002A2810D06FF02F022878A0F13001092961
:104A000014D80AEB8A0102EB410144F0020400EBE6
:104A1000010A6D1CF0E701CF5FEA000A03D544F4F8
:104A20000054CAF1000A44F002046D1C28782E28B4
:104A300017D115F8010F44F004042A280ED06FF0A6
:104A40002F022878A0F1300109290AD809EB890141
:104A500002EB410100EB01096D1CF2E757F8049BE2
:104A60006D1C28786C280FD006DC4C2817D06828DD
:104A70000DD06A2814D104E0742810D07A280FD100
:104A80000DE044F400140AE044F4801401E044F41E
:104A900040146978814202D104F580146D1C6D1CAC
:104AA0002A786E2A1FD00CDC632A31D004DC002A5D
:104AB0008BD0582A11D1A3E0642A68D0692A0CD17E
:104AC00065E0732A2ED004DC6F2A73D0702A04D1DB
:104AD0009BE0752A6FD0782A6ED01046DDE90F1260
:104AE0009047761C50E1C4F30250022806D00328F8
:104AF00009D0042801CF09D0066045E101CFF117A4
:104B0000C0E9006140E101CF06803DE106703BE174
:104B100017F8040B8DF8000000208DF80100EB461B
:104B2000012003E057F804BB4FF0FF3061074FF05E
:104B3000000102D40DE008F10101884649450FDA71
:104B40008045F8DB1BF808100029F4D108E008F1D3
:104B5000010188468142FADB1BF808100029F6D1D2
:104B6000DDE90F23AAEB08008146214600F036F963
:104B7000304400EB080604E0DDE90F121BF8010BDE
:104B80009047B8F10108F7D221464846F7E00A21DC
:104B9000C4F302534FF0000B0891022B04D001CF55
:104BA000C117032B09D00AE0FF1D27F00707F7E81C
:104BB000020108E032E01FE020E000B2C117042B40
:104BC00001D140B2C117031E71F1000307DA4FF0A3
:104BD000000CD0EB0C006CEB01012D2302E023054F
:104BE00004D52B238DF82430012303E0E30701D003
:104BF0002023F7E7984658E00A2110E010210EE044
:104C000010204FF0000B08900CE010214FF0000B2B
:104C100044F004044FF00809089103E008214FF024
:104C2000000B0891C4F30253022B04D001CF0021E2
:104C3000032B06D006E0FF1D27F00707F7E8020167
:104C400003E080B2042B00D1C0B24FF0000823076C
:104C50002BD5702A07D0DDF820C08CF0100C5CEA50
:104C60000B0C05D00EE040238DF82430012308E022
:104C700050EA010306D030238DF824308DF825202A
:104C800002239846DDF820C08CF0080C5CEA0B0C7F
:104C90000BD150EA010301D1630706D530238DF80B
:104CA00024304FF00108A9F10109582A04D038A294
:104CB0000B9208AA0A920BE03AA2F9E75B46089A1F
:104CC000FFF76CFD0B9B9B5C0A9A521E0A921370B5
:104CD00050EA0102F2D10A98ADEB000000F1200B7E
:104CE000600702D524F4803401E04FF00109D94572
:104CF00002DDA9EB0B0000E0002000EB0B014144BA
:104D00000890AAEB010AE00306D4DDE90F2321464F
:104D1000504600F063F806444FF0000908E009A986
:104D200011F80900DDE90F12904709F10109761C1D
:104D3000C145F4DBE0030CD5DDE90F2321465046E5
:104D400000F04CF8064404E0DDE90F1230209047F3
:104D5000761C0899481E08900029F5DC08E00A989E
:104D60000A990078491C0A91DDE90F129047761CD8
:104D7000BBF10001ABF1010BF1DC21465046DDE94E
:104D80000F2300F019F806446D1C1BE609280100EA
:104D900030313233343536373839616263646566B1
:104DA0000000000030313233343536373839414273
:104DB00043444546000000002DE9F041044600252B
:104DC0001E461746880404D405E039462020B04723
:104DD0006D1C641EF9D52846BDE8F0812DE9F0412F
:104DE000044600251E469046C80301D5302700E042
:104DF0002027880404D505E041463846B0476D1C9D
:104E0000641EF9D52846BDE8F0810A68531C0B6082
:104E10001070704738B504468DF8000069460320CD
:104E2000ABBE204638BD0000000000000000002F8F
:104E3000000000000700070000147F147F14002406
:104E40002A7F2A1200626408132300364955225033
:104E500000000503000000001C2241000000412268
:104E60001C000014083E08140008083E0808000052
:104E700000A0600008080808080800006060000042
:104E8000002010080402003E5149453E0000427FC8
:104E90004000004261514946002141454B31001814
:104EA00014127F10002745454539003C4A494930D6
:104EB0000001710905030036494949360006494990
:104EC000291E000036360000000056360000081C7F
:104ED0002A4908080014141414140808492A1C0844
:104EE00000020151090600324959513E007C12115D
:104EF000127C007F49494936003E41414122007FF2
:104F00004141221C007F49494941007F09090901AB
:104F1000003E4149497A007F0808087F0000417F30
:104F20004100002040413F01007F08142241007FE2
:104F300040404040007F020C027F007F0408107F49
:104F4000003E4141413E007F09090906003E4151B2
:104F5000215E007F0919294600464949493100016F
:104F6000017F0101003F4040403F001F2040201FC3
:104F7000003F4038403F0063140814630007087086
:104F8000080700615149454300007F414100005539
:104F90002A552A55000041417F000402FF02040007
:104FA000002040FF40200000010204000020545473
:104FB0005478007F48444438003844444420003842
:104FC0004444487F00385454541800087E090102B4
:104FD0000018A4A4A47C007F080404780000447D89
:104FE0004000004080847D00007F102844000000C5
:104FF000417F4000007C04180478007C0804047899
:1050000000384444443800FC242424180018242484
:1050100018FC007C08040408004854545420000480
:105020003F444020003C4040207C001C2040201C8D
:10503000003C4030403C004428102844001CA0A004
:10504000A07C004464544C44141414141414BAE3A3
:10505000CDD8BFC6BCBCB5E7B5F7D0A3D7BC00E080
:1050600000FF102002F29292929292F2020000FF50
:105070000000404F44444444444F401010FF1090FF
:10508000040484E49C8484840444827F0104020137
:10509000FF40404040FF0024A4FEA3220022CC0099
:1050A00000FF0000000601FF00010404040404FFE7
:1050B0000202021010FF109008888888FF888888F4
:1050C0000844827F01808040432C10284681800064
:1050D000F888888888FF88888888F80000001F087A
:1050E0000808087F888888889F80F042CC0000FEEE
:1050F000829292FE929282FE00003F10887F001EF4
:105100001212125E807F0010D0FF90108048280994
:105110000E082848880300FF00018080432C102CD3
:10512000438080020CE04020F84F4849FE48484840
:1051300008047F000000FF2222223F2222222000BA
:10514000000000000000000000000000000000005F
:105150000000F800000000000000333000000000F4
:10516000100C06100C0600000000000000000040BB
:10517000C07840C0784000043F04043F04040000AD
:105180007088FC08300000001820FF211E0000F08D
:1051900008F000E018000000211C031E211E000082
:1051A000F00888700000001E212324192721101008
:1051B000160E0000000000000000000000000000CB
:1051C0000000E01804020000000007182040000062
:1051D000020418E000000000402018070000004012
:1051E0004080F0804040000202010F0102020000F6
:1051F0000000F0000000000101011F01010100009A
:105200000000000000000080B070000000000000FE
:105210000000000000000000010101010101010087
:10522000000000000000000030300000000000001E
:1052300000000080601804006018060100000000F3
:10524000E010080810E000000F102020100F0000F0
:105250001010F8000000000020203F202000000077
:1052600070080808887000003028242221300000CF
:10527000300888884830000018202020110E0000D7
:1052800000C02010F8000000070424243F24000080
:10529000F80888880808000019212020110E000055
:1052A000E0108888180000000F112020110E000067
:1052B000380808C83808000000003F00000000005F
:1052C00070880808887000001C222121221C000020
:1052D000E010080810E0000000312222110F000049
:1052E0000000C0C0000000000000303000000000DE
:1052F000000080000000000000806000000000004E
:105300000080402010080000010204081020004026
:1053100040404040404000040404040404040000F1
:105320000810204080000000201008040201000046
:105330007048080808F0000000003036010000C086
:1053400030C828E810E0000718272423140B0000B9
:1053500000C038E0000000203C230202273820086B
:10536000F8888888700000203F202020110E00C09F
:105370003008080808380007182020201008000806
:10538000F808080810E000203F202020100F000837
:10539000F88888E8081000203F2020232018000803
:1053A000F88888E8081000203F200003000000C0B3
:1053B0003008080838000007182020221E020008C4
:1053C000F808000008F808203F210101213F2000D3
:1053D0000808F8080800000020203F2020000000F6
:1053E000000808F8080800C08080807F00000008DE
:1053F000F888C028180800203F200126382000081F
:10540000F8080000000000203F2020202030000885
:10541000F8F800F8F80800203F003F003F2000089F
:10542000F830C00008F808203F200007183F00E0CF
:105430001008080810E0000F10202020100F0008AE
:10544000F808080808F000203F210101010000E0F1
:105450001008080810E0000F18242438504F0008E6
:10546000F8888888887000203F2000030C302000D6
:10547000708808080838000038202121221C0018F4
:105480000808F8080818000000203F200000000865
:10549000F808000008F808001F202020201F00083E
:1054A00078880000C83808000007380E010000F8AE
:1054B0000800F80008F800033C0700073C03000858
:1054C0001868808068180820302C03032C302008CE
:1054D00038C800C83808000000203F200000001035
:1054E000080808C8380800203826212020180000A5
:1054F0000000FE020202000000007F404040000069
:105500000C30C000000000000000010638C00000A0
:10551000020202FE000000004040407F0000000048
:10552000000402020204000000000000000000006D
:10553000000000000000008080808080808080006B
:105540000202040000000000000000000000000053
:10555000008080808000000019242222223F200841
:10556000F8008080000000003F112020110E000094
:1055700000008080800000000E112020201100001B
:105580000000808088F800000E112020103F2000CD
:1055900000808080800000001F2222222213000051
:1055A0008080F0888888180020203F20200000009C
:1055B00000808080808000006B9494949360000849
:1055C000F8008080800000203F210000203F200064
:1055D000809898000000000020203F20200000005C
:1055E0000000809898000000C08080807F00000844
:1055F000F8000080808000203F24022D3020000031
:105600000808F8000000000020203F202000008053
:1056100080808080808000203F20003F20003F80ED
:1056200080008080800000203F210000203F20007B
:1056300000808080800000001F202020201F00802C
:105640008000808000000080FFA12020110E00005B
:1056500000008080808000000E112020A0FF80804C
:105660008080008080800020203F212000010000F9
:1056700000808080808000003324242424190000CE
:105680008080E0808000000000001F20200000805B
:1056900080000000808000001F202020103F20801C
:1056A0008080000080808000010E300806010080AC
:1056B000800080008080800F300C030C300F0000D1
:1056C000808000808080000020312E0E31200080FC
:1056D0008080000080808080818E7018060100002C
:1056E000808080808080000021302C2221300000CA
:1056F000000000807C020200000000003F404000EB
:10570000000000FF00000000000000FF000000009B
:1057100002027C800000000040403F0000000000CA
:105720000000000000808000000000000001010077
:105730000000000000000000000000000000000069
:105740000000000000000000000000000000000059
:105750000000000000000000000000000000001831
:105760001C3C3C7CFC3C3C7CD80000000000000061
:105770000000000000000000000000000000000029
:105780000000000000000000000000000000000019
:105790000000000000000000000000000000000009
:1057A00000000000000000000000000000000000F9
:1057B00000000000000000000000000000000000E9
:1057C000000000000000000000000000002060E079
:1057D000C0C0C0C080C08000000000000000000009
:1057E00000000000FF8040201F00000000000000BB
:1057F00000000000000000000000000000000000A9
:1058000000000080C08080C0C0C0C0606000000098
:105810000000000000000000000000000000000088
:105820000000000000000000000000000000000078
:105830000000000000000000000000000000000068
:105840000000000000000000000000000000000058
:1058500000010119FFFFFFFF73F2F6E4E4ECC8C892
:10586000C0C080F0FFF0E0F0D0D8FCFEFFFFFFFFEB
:10587000FCC0C0C0E0E0F0F0E0C0C0C4E4E4E2F28C
:10588000727BFFFFFFFF1901010100000000000013
:105890000000000000000000000000000000000008
:1058A00000000000000000000000000000000000F8
:1058B0000000000000000000000000808080808068
:1058C0008080C040C0F0F8F0F0E060F0F0707070E0
:1058D000703030303FBF9F98988888C9C9C3C3E7EC
:1058E000EFFFFFFFFFFFFFFFFFFFFFFFFFFFFFFFD8
:1058F000FFFFFFFFFFFFFFFFFFFFF7E3E3C1C9C8A3
:10590000C8C8999F9F9FB838383030307070707019
:1059100070F0F8F8F8F0E0604040404040C0C0C08F
:105920008080808080808080000000000000000671
:10593000020202020303030101010101010101014D
:1059400000002070FFFFFFFFFFFFFE7E3E3E3E3E59
:105950003F1F1F1F1F1F1F1F0F0F0F0F0F0F0703CB
:105960000101010103878F8F8F87BFFFFFFFFFFFBB
:10597000FFDF87878F878103030101010107070F7D
:105980000F0F0F1F1F1F1F1F1F1F1F3F3F3E3E3CBC
:105990007FFFFFFFFFFFFF38100000000000000046
:1059A00000000000000101010101010101010100ED
:1059B00000000000000000000000000000000000E7
:1059C0000000000003FFFFFFFF1F010000000000B8
:1059D00000000000000000000000000000000000C7
:1059E00000000000003F3F3F3F3F3F7FFFFFFFFFC2
:1059F000FFFFFFFFFFFFFF1F00000000000000008F
:105A00000000000000000000000000000000000096
:105A10000003FFFFFFFF0300000000000000000084
:105A20000000000000000000000000000000000076
:105A30000000000000000000000000000000000066
:105A4000000000000007FFFFFF0000000000000052
:105A50000000000000000000000000000000000046
:105A60000000000000000000000000000000000036
:105A70000000000000000000000000000000000026
:105A80000000000000000000000000000000000016
:105A9000000003FFFF030000000000000000000002
:105AA00000000000000000000000000000000000F6
:105AB00000000000000000000000000000000000E6
:105AC000000000000000F0FFFFF0C0000000000038
:105AD00000000000000000000000000000000000C6
